:020000040800F2
:100000007806002045010008BB150008B91100085A
:10001000B7150008AD0C00089B2100080000000087
:100020000000000000000000000000001F1B00088E
:10003000D50F00080000000057190008B51C000883
:100040005F0100085F0100085F0100085F01000810
:100050005F0100085F0100085F0100085F01000800
:100060005F0100085F0100085F0100085F010008F0
:100070005F0100085F0100085F0100085F010008E0
:100080005F0100085F0100085F0100085F010008D0
:100090005F0100085F0100085F0100085F010008C0
:1000A0005F010008751D00085F0100085F0100087E
:1000B0005F0100085F0100085F0100085F010008A0
:1000C0005F0100085F0100085F0100085F01000890
:1000D0005F0100085F0100085F010008A91E000819
:1000E0005F0100085F0100085F0100085F01000870
:1000F0005F0100085F0100085F0100085F01000860
:100100005F0100085F0100085F0100085F0100084F
:100110005F0100085F0100085F0100085F0100083F
:100120005F0100085F0100085F0100085F0100082F
:10013000DFF80CD000F024FC00480047CD2C00086C
:10014000780600200648804706480047FEE7FEE79D
:10015000FEE7FEE7FEE7FEE7FEE7FEE7FEE7FEE777
:10016000B91C0008310100082DE9F0410024061BEC
:10017000254671F1000605DA01240027D0EB0700BF
:1001800067EB0101161E73F1000605DA0027D2EBBA
:100190000702012567EB030300F0CCFA86460E4602
:1001A00017469C46AC4204D00025D0EB050E65EB0B
:1001B000010624B10020D2EB000760EB030C70466F
:1001C00031463A466346BDE8F08140EA01039B07A9
:1001D00003D009E008C9121F08C0042AFAD203E0BC
:1001E00011F8013B00F8013B521EF9D27047D2B220
:1001F00001E000F8012B491EFBD270470022F6E710
:1002000010B513460A4604461946FFF7F0FF20468C
:1002100010BDF0B480EA0102D40F4200B2EB410FEE
:1002200002D20246084611464A0042D0C30DDDB252
:10023000C1F3C752AD1A202D35DAC1F3160141F4CE
:10024000000204B15242C5F1200602FA06F12A4129
:100250001044B3EBD05F23D0C4B1012DA0EBC35049
:1002600009DCF0BC4FF0004202EAC352DBB200F5F9
:10027000000000F0CABA400000F1807000EBC350EB
:10028000A0F1807040EAD170490009E0490841EAD4
:10029000C071A0EBC35000F50000400800EBC35054
:1002A000F0BC00F0A9BA6142012202EB4101001B3F
:1002B000F6E7F0BC704781F00041AAE780F000400B
:1002C000A7E730B480EA010202F0004530F00042B6
:1002D00021F0004013D090B1C30DD40DC2F316012C
:1002E000C0F31600E41A41F4000140F400027D342A
:1002F000914201D3641C00E04900002C02DA30BCBA
:10030000002070474FF400000023914201D3891A66
:10031000034340084FEA4101F7D151B1914202D164
:100320004FF0004105E002D24FF0010101E06FF013
:10033000010103EBC450284430BC00F05DBA2DE944
:10034000FE4F804681EA0300C00F0C46009021F06A
:10035000004123F00045B8EB0200A94105D2404618
:10036000214690461C460B46024623F000401043AF
:1003700047D0270DC7F30A00C3F30A510290401A71
:10038000019040286BDAC3F3130040F4801B0098FF
:10039000924620B10023D2EB030A63EB0B0B0198CA
:1003A0005946C0F14002504600F0F5F906460D46A8
:1003B00050465946019A00F00DFA10EB08006141D1
:1003C000002487EA115284EAE7731A4340D0009A66
:1003D00062B3019A012A4FEA075215DC001B61EB58
:1003E00002014FF0004202EA0752CDE90042001C30
:1003F00041F5801132462B4600F044FA03B0BDE8C7
:10040000F08F40462146F9E7001B61EB0201001C1A
:1004100041F5801300185B412018A2F5001747EB47
:10042000030140EAD570B6196D4111E06D084FEA3D
:10043000360645EAC0754FEA0752001B61EB020120
:10044000001C41F5801149084FEA30000019514164
:1004500032462B4603B0BDE8F04F00F004BA0098D6
:10046000012240000023D0EB020263EBE07300980E
:1004700021464FEAE074B8EB000061EB0401E9E7C4
:1004800083F000435BE781F0004158E72DE9FE4F20
:1004900081EA030404F0004421F0004100944FF08D
:1004A000000B23F0004350EA01045ED052EA03043B
:1004B0005BD0C3F30A54C1F30A552C44A4F2F334BD
:1004C0000194A0FB0254C1F3130141F48011C3F362
:1004D000130343F4801301FB024400FB034E840A20
:1004E000970A44EA815447EA8357A4FB07680295B8
:1004F0008D0A05FB07854FEA932C04FB0C54270556
:10050000029D4FEA065847EA1637B5EB08056EEB31
:10051000070C870E920E47EA811742EA8312A7FB67
:100520000201B6EB0B0164EB00042B0D43EA0C3324
:100530005E1844EB1C50DA465146E7FB0201C5F356
:1005400013044FEA0B3343EA14534FEA0432019C7D
:1005500043EA0603A4F10C040294009CCDE900B424
:1005600000F090F903B0BDE8F08F00200146F9E7F4
:100570002DE9F04D81EA030404F0004B21F0004521
:1005800014464FF0000A23F0004150EA050220D043
:1005900054EA01021DD0C5F30A570246C5F31303FE
:1005A000C1F31300C1F30A5640F4801543F48013DD
:1005B000A7EB0608101BD64608F2FD3873EB0500C2
:1005C00002D308F1010801E092185B41B8F1000F75
:1005D00003DA00200146BDE8F08D00204FF48011C1
:1005E000064684460EE0171B73EB050705D3121B66
:1005F00063EB050306434CEA010C49084FEA30005F
:1006000092185B4150EA0107EDD152EA030012D083
:1006100082EA040083EA0501084305D0101BAB41C0
:1006200006D20122002306E000224FF0004302E040
:100630006FF0010253101AEB06004CEB085110EB5F
:100640000A0041EB0B01BDE8F04D00F00CB9962318
:100650000022114600F0D9B80EB5C10F80EAE07053
:100660000844CA07002140F233438DE80E000A46D1
:100670000B4600F007F903B000BD0EB540F2334160
:1006800002910021CDE900110A460B4600F0FAF86C
:1006900003B000BD00F0004230F000400AD0C10DB0
:1006A00001F56071C0F3160042EA0151C20840072B
:1006B0001143704700200146704701F0004330B4F9
:1006C00021F0004150EA010206D00A0DA2F5607245
:1006D000C1F31301002A02DC30BC00207047440F34
:1006E00044EAC104C100E01830BC00EBC25000F085
:1006F00083B80000002801DBC0F10040002901DBC5
:10070000C1F100418142704730B50B4601460020DF
:100710002022012409E021FA02F59D4205D303FAC3
:1007200002F5491B04FA02F52844151EA2F1010244
:10073000F1DC30BD2DE9F05F0546002092469B4676
:1007400088460646814640241BE0284641464746E7
:10075000224600F02FF853465A46C01A914110D352
:1007600011461846224600F016F82D1A67EB0108CC
:100770004F4622460120002100F00DF817EB00093A
:100780004E41201EA4F10104DFDC484631462A46D2
:100790004346BDE8F09F202A04DB203A00FA02F12C
:1007A000002070479140C2F1200320FA03F319435F
:1007B00090407047202A04DB203A21FA02F0002101
:1007C000704721FA02F3D040C2F120029140084361
:1007D00019467047202A06DBCB17203A41FA02F06F
:1007E00043EAE07306E041FA02F3D040C2F120028E
:1007F00091400843194670470029A8BF7047401C24
:10080000490008BF20F00100704710B4B0FA80FC26
:1008100000FA0CF050EA010404BF10BC704749B163
:10082000CCF1200421FA04F411FA0CF118BF0121D3
:1008300021430843A3EB0C01CB1D4FEA00614FEAB3
:10084000102042BF002010BC704700EBC350104482
:100850000029A4BF10BC7047401C490008BF20F00D
:10086000010010BC704710B5141E73F1000408DAC3
:10087000401C41F1000192185B411A4301D120F064
:10088000010010BD2DE9F04D92469B4611B1B1FA21
:1008900081F202E0B0FA80F220329046FFF77BFF4F
:1008A00004460F4640EA0A0041EA0B0153465A4605
:1008B000084313D0114653EA010019D0C8F1400291
:1008C0005046FFF777FF05460E46504659464246CA
:1008D000FFF761FF084305D0012004E020463946B8
:1008E000BDE8F08D0020054346EAE0762C4337430F
:1008F0000A986305E40AA0EB08000022FD0A44EA16
:1009000047540A3002D500200146E9E701051019D5
:100910006941DDE9084500196941BDE8F04DA2E7EC
:10092000C1F30A52C1F3130140F2FF3341F48011C5
:100930009A4202DA00200146704740F233439A425D
:10094000A2F2334202DC5242FFF734BFFFF723BF6B
:1009500030B5041E71F1000404DB4FF00044404246
:1009600064EB0101141E73F1000405DB1C464FF01B
:100970000043524263EB0403994208BF904230BDEA
:10098000064C074D06E0E06840F0010394E80700DC
:1009900098471034AC42F6D3FFF7CEFBE0350008A1
:1009A0000036000808B50121084600F0E1FF0121EA
:1009B0004FF4017000F0FCFF1020ADF800000020A3
:1009C0008DF803006946024800F067FB08BD00008F
:1009D0000008014010B5FFF7E5FF00F001F810BD79
:1009E00000B591B0334800F031FA334806903348EF
:1009F0000790002008900120099000200A900B9099
:100A00004FF480700C9080000D9020200E9000021A
:100A10000F900020109006A9264800F0BDFA012191
:100A2000244800F007FA002001908DF8080001200A
:100A30008DF809004FF460200390002004900120FD
:100A40008DF8140001A91C484C3800F063F84FF4ED
:100A5000404000F081FF05230122042116484C3854
:100A600000F080F8012114484C3800F034F80121DE
:100A700011484C3800F024F80F484C3800F0CEF8FC
:100A800000BF0D484C3800F03BF80028F9D10A4867
:100A90004C3800F0D3F800BF07484C3800F026F877
:100AA0000028F9D1012104484C3800F0BCF811B0FD
:100AB00000BD0000080002404C240140E40000207A
:100AC00021B1826842F00102826003E0826822F074
:100AD00001028260704721B1826842F480728260B4
:100AE00003E0826822F48072826070470146002031
:100AF0008A6802F004020AB1012000E00020704779
:100B0000014600208A6802F008020AB1012000E0D4
:100B10000020704730B502460020002350680F4C7B
:100B200020400D790C6844EA052420435060906809
:100B30000B4C2040D1E902542C434D7944EA450442
:100B400020439060D06A20F470000C7C641EE4B2F4
:100B5000234340EA0350D06230BD0000FFFEF0FFA7
:100B6000FDF7F1FFF0B504460D4600200021092DE8
:100B700011DDE068A5F10A0606EB4607072606FA2E
:100B800007F18843A5F10A0606EB460603FA06F1CB
:100B90000843E0600CE0206905EB4507072606FAEC
:100BA00007F1884305EB450603FA06F10843206187
:100BB000072A0FDA606B561E06EB86071F2606FA19
:100BC00007F18843561E06EB860605FA06F1084330
:100BD000606322E00D2A0FDA206BD61F06EB860732
:100BE0001F2606FA07F18843D61F06EB860605FA8C
:100BF00006F10843206310E0E06AA2F10D0606EB5F
:100C000086071F2606FA07F18843A2F10D0606EBB8
:100C1000860605FA06F10843E062F0BD816841F0FE
:100C200008018160704721B1826842F4A0028260AD
:100C300003E0826822F4A00282607047816841F07C
:100C400004018160704700002DE9F05F00F030F88A
:100C50001249486000F074F8104908601048008894
:100C6000FFF7F5FC83464FF08B41FFF72AFB8246E6
:100C7000FFF710FD06464FF066320A4BFFF706FC01
:100C800004464FF06632084BFFF700FC8046FFF742
:100C900014FD02498860BDE8F09F00002C00002090
:100CA000E400002066660A406666184000BFFEE762
:100CB0002DE9F84F4FF000090024A24600200090D3
:100CC000834600F03DFC81461A484069A9EB0024A8
:100CD0001848806960434FF4FA6101EBD05A164915
:100CE0000098FFF707FD0BD204EB440000FB04F56E
:100CF0000022022328461146FFF736FA834609E010
:100D0000600000FB04F50022202328461146FFF76F
:100D10002BFA8346AAEB0B00FFF7AFFC0746002235
:100D2000064BFFF725FC0546FFF7C7FC009000982F
:100D3000BDE8F88FF40100200000A04100005940F8
:100D40002DE9F04F89B0002008900790069000260A
:100D50000027059080460024049000F0F1FB0590E8
:100D6000324840690599A1EB00283048806900FBB2
:100D700008F04FF4FA6101EBD05400F0C9FB089081
:100D80006420B4FBF0F0142811D2C4F5FA6000EB33
:100D90004000C4F5FA6148434508C4F5FA6000EB29
:100DA0008000C4F5FA614843C008079006E0A4F546
:100DB000FA60014648430509002007901B48008956
:100DC00001041A48006900FB08F001EBD01917482C
:100DD0004068C1031548C06800FB08F001EB102013
:100DE0000690A9EB050ADDE90601461A3046F1171F
:100DF00006EBD1214915089A5143A1EB0A07BB46DE
:100E0000F91707EBD1414813FFF726FC0022084BE6
:100E1000CDE90001FFF7ACFBCDE90201FFF74DFC86
:100E20000490049809B0BDE8F08F0000F4010020A0
:100E30000000244021B1026842F00102026004E097
:100E400002684FF6FE731A400260704701684FF661
:100E5000FE72114001600021016041608160C1604B
:100E60004B49884208D14A490839496841F00F0185
:100E7000474A083A51608AE045491431884208D10E
:100E800043490839496841F0F001414A083A516044
:100E90007DE03F492831884208D13D4908394968F9
:100EA00041F470613A4A083A516070E038493C3187
:100EB000884208D136490839496841F47041344ABA
:100EC000083A516063E032495031884208D13049D4
:100ED0000839496841F470212D4A083A516056E0BA
:100EE0002B496431884208D129490839496841F4BD
:100EF0007001274A083A516049E025497831884213
:100F000008D123490839496841F07061204A083AFC
:100F100051603CE01F49884206D1011F096841F039
:100F20000F01021F116032E01A491431884208D1C2
:100F30001849091F096841F0F001164A121F116093
:100F400025E014492831884208D11249091F09684F
:100F500041F470610F4A121F116018E00D493C31D5
:100F6000884208D10B49091F096841F47041094AB8
:100F7000121F11600BE007495031884207D1054923
:100F8000091F096841F47021024A121F116070475D
:100F9000080002400804024010B50022026847F62B
:100FA000F0739A430C6A8B6823430C6923434C69A2
:100FB00023438C692343CC6923434C6A23438C6AC3
:100FC00023431A430260CB6843600B6883604B681D
:100FD000C36010BD70470FB4F0B597B00646319F9F
:100FE0000025CA208DF80000AC208DF801000320F8
:100FF0008DF8020030208DF80300012F0ED0032F52
:1010000019D103208DF805002A208DF804001DACAD
:1010100024221DA902A8FFF7D8F80DE001208DF8C1
:10102000050032208DF8040026AC2C2226A90BA83E
:10103000FFF7CBF800E000BF00BF9DF802009DF86D
:10104000031048408DF858009DF858009DF8041092
:1010500048408DF858009DF858009DF8051048400C
:101060008DF85800002507E09DF85800615D484064
:101070008DF85800681CC5B29DF80400801FA84276
:10108000F2DCCC208DF859005C2269463046FFF72F
:101090009CF817B0F0BC5DF814FB2DE9F041024656
:1010A00000250026002000230024002791F803C01B
:1010B0000CF00F0591F803C00CF0100CBCF1000F00
:1010C00003D091F802C04CEA050591F800C0BCF1CC
:1010D000000F31D0146800202BE04FF0010C0CFA07
:1010E00000F3B1F800C00CEA03069E4220D1830051
:1010F0004FF00F0C0CFA03F7BC4305FA03FC4CEA63
:10110000040491F803C0BCF1280F06D14FF0010C84
:101110000CFA00FCC2F814C00AE091F803C0BCF15C
:10112000480F05D14FF0010C0CFA00FCC2F810C0BA
:10113000401C0828D1D31460B1F800C0BCF1FF0FE7
:1011400034DD546800202EE000F1080C4FF0010857
:1011500008FA0CF3B1F800C00CEA03069E4221D154
:1011600083004FF00F0C0CFA03F7BC4305FA03FCA5
:101170004CEA040491F803C0BCF1280F05D100F13A
:10118000080C08FA0CF8C2F8148091F803C0BCF1FE
:10119000480F07D100F1080C4FF0010808FA0CF8CD
:1011A000C2F81080401C0828CED35460BDE8F081FE
:1011B000416170470161704700BFFEE710B5002034
:1011C0000F4908600F48006820F070400D49086022
:1011D0000846006840F04050086000200A49C1F805
:1011E0009C01022001F042FD012005490860022017
:1011F00001F03CFD00200449C1F8980110BD000039
:1012000098812142000C01400080214208B5012153
:10121000082000F0CDFBC020ADF8000010208DF8B4
:10122000030003208DF8020069460448FFF735FFEC
:10123000C0210248FFF7BEFF08BD0000000C0140BE
:1012400010B500200F4908600F48006820F070407A
:101250000D4908600846006840F0405008600120D1
:101260000A49C1F89C01022001F000FD0120054956
:101270000860022001F0FAFC00200449C1F898013E
:1012800010BD000098812142000C014000802142E5
:1012900070B5054600241748006820F070401549D5
:1012A00008600846006840F000400860002616E02C
:1012B000002011490860022001F0D8FC01200F49EC
:1012C000C1F898016006040E0B487C38006808B12C
:1012D000601CC4B2012001F0C9FC701CC6B2082E0B
:1012E000E6DB15B9FFF7ACFF01E0FFF767FF20462B
:1012F00070BD0000000C0140988121420080214215
:1013000070B504461548006820F070401349086025
:101310000846006840F0405008600020104908600E
:10132000002517E0E0090E49091D08606006040E5B
:10133000022001F09BFC01200A49C1F8980102201B
:1013400001F094FC002006490860022001F08EFCA8
:10135000681CC5B2082DE5DB70BD0000000C014023
:10136000988121420080214210B54FF40051094874
:10137000FFF720FF4FF480410648FFF71BFF4FF4B3
:1013800080410448FFF714FF4FF400510148FFF774
:101390000FFF10BD000C014010B50F48006820F091
:1013A00070400D4908600846006840F040500860F1
:1013B00001200A4908600A49C1F89801042001F097
:1013C00055FC002005490860042001F04FFC002076
:1013D0000349C1F8980110BD000C01409C812142D5
:1013E0000080214210B54FF400510748FFF7E2FE9C
:1013F0004FF480410448FFF7DBFE4FF48041024880
:10140000FFF7D8FE10BD0000000C014010B50F48DA
:10141000006820F070400D4908600846006840F000
:101420004050086000200A4908600A49C1F89C0140
:10143000042001F01BFC0120054908600549C1F8A2
:101440009C01042001F012FC10BD0000000C0140C2
:10145000988121420080214210B54FF40051044888
:10146000FFF7A8FE4FF400510148FFF7A1FE10BDA1
:10147000000C014010B500241448006820F07040B2
:10148000124908600846006840F0004008600120EA
:101490000F49086001F0EAFB01200E49C1F89801EC
:1014A00001F0E4FB07E0601CC4B2FA2C03DDFFF797
:1014B000ADFF012010BD0648803800680028F2D139
:1014C0000349091F086000BFF4E70000000C014059
:1014D0009C8121420080214208B50121042000F0B6
:1014E00067FA4FF48070ADF8000010208DF803000B
:1014F00003208DF8020069460448FFF7CEFD4FF443
:1015000080710248FFF756FE08BD00000008014048
:1015100010B50024482000F02DFB142001F078FBCA
:10152000002000F027FB142001F072FB00F0D1FA3C
:10153000044602480460204610BD0000DC00002084
:1015400010B50024582000F015FB142001F060FBBA
:10155000002000F00FFB142001F05AFB00F0B9FA54
:10156000044602480460204610BD0000E000002050
:1015700010B5002400F01AF800BF11E06100A0319E
:10158000C8B200F0F7FA052001F070FB00F08AFA0B
:10159000054941F82400052001F068FB601CC4B235
:1015A000072CEBDB10BD0000F401002010B51E205D
:1015B00000F0E0FA10BD00BFFEE7704770B50021F3
:1015C00000230F22C47804B3154C246804F4E064AB
:1015D000C4F5E064210AC1F10403CA40447804FA66
:1015E00003F184781440214309010E4C0678A1557B
:1015F000047804F01F050124AC4005786D11AD009E
:1016000005F1E025C5F8004109E0047804F01F0564
:101610000124AC40044D0678761145F8264070BD93
:101620000CED00E000E400E080E100E0024901434D
:10163000024A1160704700000000FA050CED00E05E
:10164000F0B589B0002001F020FB28490868FFF7B9
:1016500021F8044622460B4625A101A800F03EFED3
:10166000102301AA0021022000F04CF91F4948680C
:10167000FFF710F8044622460B4620A101A800F00F
:101680002DFE102301AA0221084600F03BF91E4955
:101690008868FEF7FFFF044622460B461BA101A8FF
:1016A00000F01CFE102301AA0421022000F02AF9F8
:1016B00015480146076808684FF07E51FEF7A9FDFE
:1016C00011493C4608602046FEF7E4FF05462A46DD
:1016D0000B4611A101A800F001FE102301AA06216A
:1016E000022000F00FF909B0F0BD00005800002002
:1016F0006D453A25352E326C660000007069743AEB
:1017000025352E326C6600002C00002070453A25ED
:10171000352E326C6620560054656D3A25352E32D2
:101720006C66206D0000000008B50121082000F063
:101730003FF94FF4C040ADF8000010208DF80300D1
:1017400003208DF8020069463A48FFF7A6FC4FF4E3
:10175000C0413848FFF72EFD0021AE2000F0EFF821
:101760000021084600F0EBF80021102000F0E7F817
:101770000021402000F0E3F80021B02000F0DFF865
:101780000021812000F0DBF80021FF2000F0D7F8D5
:101790000021A12000F0D3F80021A62000F0CFF80E
:1017A0000021A82000F0CBF800213F2000F0C7F86E
:1017B0000021C82000F0C3F80021D32000F0BFF8BA
:1017C0000021084600F0BBF80021D52000F0B7F852
:1017D0000021802000F0B3F80021D82000F0AFF8FD
:1017E0000021052000F0ABF80021D92000F0A7F877
:1017F0000021F12000F0A3F80021DA2000F09FF88A
:101800000021122000F09BF80021DB2000F097F867
:101810000021302000F093F800218D2000F08FF897
:101820000021142000F08BF80021AF2000F087F891
:1018300008BD0000000C014070B504460D4605F1DE
:10184000B000002100F07BF8102141EA14100021C3
:1018500000F075F804F00F00002100F070F870BD82
:101860002DE9F04707460E4690469946002500248C
:10187000A8F12000C5B27F2F02DD0027B01CC6B240
:10188000B9F1100F24D131463846FFF7D5FF0024B7
:1018900008E004EB0511194A505C012100F04FF8F3
:1018A000601CC4B2082CF4DB701CC1B23846FFF7D0
:1018B000C3FF002409E004EB051108310F4A505C16
:1018C000012100F03CF8601CC4B2082CF3DB12E0EC
:1018D00031463846FFF7B0FF00240AE005EB45012A
:1018E000074A02EB4101085D012100F028F8601C65
:1018F000C4B2062CF2DBBDE8F0870000F02F000830
:10190000C82D00082DE9F04104460F4615469846BB
:1019100000260FE0AA5D434639462046FFF7A0FFA8
:1019200004F10800C4B2782C02DD0024B81CC7B250
:10193000701CC6B2A85D0028ECD1BDE8F08170B57E
:1019400004460D461DB1E0B200F0B2FC02E0E0B288
:1019500000F098FC70BD704701460020034A5068B3
:1019600020F44040084350607047000000100240DF
:1019700029B1064A52690243044B5A6104E0034A02
:1019800052698243014B5A617047000000100240C7
:1019900029B1064AD2690243044BDA6104E0034AE2
:1019A000D2698243014BDA617047000000100240A7
:1019B00029B1064A92690243044B9A6104E0034A42
:1019C00092698243014B9A61704700000010024007
:1019D00030B500210022002400232D4D6D6805F054
:1019E0000C0121B1042905D0082923D105E0294D96
:1019F000056022E0274D05601FE0254D6D6805F468
:101A00007012234D6D6805F48034022505EB924277
:101A10001CB9214D554305600BE01D4D6D6805F463
:101A200000351DB11C4D5543056002E0194D55436D
:101A3000056002E0174D056000BF00BF144D6D68E2
:101A400005F0F0010909154D6B5C0568DD40456046
:101A50000F4D6D6805F4E061090A104D6B5C456837
:101A6000DD4085600A4D6D6805F46051C90A0B4D73
:101A70006B5C4568DD40C560054D6D6805F440410F
:101A8000890B074D6B5CC568B5FBF3F5056130BD8F
:101A90000010024000127A0000093D0014000020EE
:101AA0002400002070B50026FFF776FCED20FFF73C
:101AB00027FCFFF7DFFC0120FFF7EAFB05460020CB
:101AC000FFF7E6FB0646FFF7A1FC46EA05242046A1
:101AD00070BD2DE9F0410027FFF75EFCED20FFF718
:101AE0000FFCFFF7C7FC0120FFF7D2FB05460120E2
:101AF00001F0BCF80120FFF7CBFB0646012001F006
:101B0000B5F80020FFF7C4FB0746FFF77FFC280469
:101B100040EA062040EA07042046BDE8F08170470D
:101B200000B5C1B02C2211491148FEF74EFB01202F
:101B300044220F49183911906846FEF746FB0C48BD
:101B400024380EC813A8FFF746FA5C2213A92AA866
:101B5000FEF73BFB4C222EA96846FEF736FB2AA86F
:101B60000FC800F02DFB41B000BD00002C0000208C
:101B7000C801002010B50446FFF70EFCEC20FFF76B
:101B8000BFFBFFF777FC28B92046FFF7B9FBFFF74B
:101B900071FC01E0FFF73AFCFFF738FC052001F08B
:101BA00065F810BD10B500F001F810BD0CB50020AF
:101BB000019000903348006840F48030314908605B
:101BC00000BF3048006800F4003000900198401CCD
:101BD0000190009818B90198B0F5A06FF1D129488B
:101BE000006800F4003010B10120009001E00020F6
:101BF00000900098012843D12348006840F010006D
:101C0000214908600846006820F003000860084683
:101C1000006840F0020008601A48406819494860AE
:101C20000846406848600846406840F48060486064
:101C30000846406820F47C1048600846406840F43C
:101C4000E81048600846006840F08070086000BFF7
:101C50000C48006800F000700028F9D0094840687E
:101C600020F00300074948600846406840F0020041
:101C7000486000BF0348406800F00C000828F9D114
:101C80000CBD00000010024000200240042808D1D2
:101C90004FF0E021096941F004014FF0E0221161A9
:101CA00007E04FF0E021096921F004014FF0E02244
:101CB000116170477047000010B51348006840F08C
:101CC00001001149086008464068104908400E4963
:101CD0004860084600680E4908400B4908600846FD
:101CE000006820F4802008600846406820F4FE0068
:101CF00048604FF41F008860FFF754FF4FF000600A
:101D00000449086010BD0000001002400000FFF808
:101D1000FFFFF6FE08ED00E07FB505460C46012109
:101D2000C802FFF745FEADF80850ADF804400020AA
:101D3000ADF80A00ADF8060001A90D4800F062F800
:101D4000012211460A4800F053F819208DF80000CE
:101D500000208DF8010001208DF802008DF80300AD
:101D60006846FFF72BFC0121014800F024F87FBDF5
:101D7000002C014010B50121094800F028F8012885
:101D800008D108480068C0430749C1F8A0010120F4
:101D9000064908600121024800F00AF810BD000061
:101DA000002C0140A0012142000021422800002017
:101DB000CA430282704721B1028842F001020280C8
:101DC00004E002884FF6FE731A400280704730B577
:101DD0000246002000230024158A05EA01039589A4
:101DE00005EA010413B10CB1012000E0002030BD70
:101DF0001AB183890B43838102E083898B438381FA
:101E000070470000002202881D4B98420ED01D4BE7
:101E100098420BD0B0F1804F08D01B4B984205D0B0
:101E20001A4B984202D01A4B984204D14FF68F7346
:101E30001A404B881A43174B984207D0164B9842CA
:101E400004D04FF6FF431A40CB881A4302808B8898
:101E500083850B8803850A4B98420BD0094B984227
:101E600008D00E4B984205D00D4B984202D00D4B36
:101E7000984201D10B7A03860123838270470000C8
:101E8000002C0140003401400004004000080040E4
:101E9000000C0040001000400014004000400140D1
:101EA000004401400048014010B540F22551464829
:101EB00000F0AFF8002874D0434800F065F9C4B2D0
:101EC0004248007809287CD2DFE800F005111D2384
:101ED000292F3C565D003E480470CA2C03D10120D6
:101EE0003A49087002E00020384908706AE0384832
:101EF0004470AC2C03D102203449087002E0002069
:101F0000324908705EE03248847003202F4908701F
:101F100058E02F48C47004202C49087052E02C4827
:101F200004710520294908704CE029484471007962
:101F3000801F18B907202549087002E006202349B0
:101F400008703FE023482449097844542248007827
:101F5000401C214908701E480079801F097888427A
:101F600006DC00201C49087007201849087002E0B0
:101F700006201649087025E0154880F858400820CA
:101F8000124908701EE0124880F859404079032831
:101F900009D10F480079821F0E491048FEF715F944
:101FA00002E010E00DE000BF00BF084800780828FC
:101FB00006D164210748FEF721F900200349087083
:101FC00000E000BF00BF10BD00480040E800002056
:101FD000EC00002014020020E9000020580000203E
:101FE00021B1828942F40052828104E082894DF657
:101FF000FF731A408281704702460020B1F5007FCE
:1020000000D100BF13880B400BB1012000E000207D
:10201000704770B50246002400230025002040F6DA
:102020006A16B14200D100BFC1F3421501F01F038F
:10203000012606FA03F3012D02D19689334006E00A
:10204000022D02D1168A334001E0968A33400C12E9
:10205000012606FA04F41688344013B10CB10120AD
:1020600000E0002070BDF0B50346002400260025E6
:10207000002040F66A17B94200D100BF1846C1F3EC
:10208000421401F01F06012707FA06F5012C01D1C1
:102090000C3004E0022C01D1103000E014301AB1F1
:1020A00007682F43076002E00768AF430760F0BD91
:1020B0002DE9F04786B005460E460024A24600BF33
:1020C000A1460027B08900B100BF2F462C8A4CF6EC
:1020D000FF700440F08804432C82AC894EF6F31064
:1020E0000440B08831890843718908430443AC81B6
:1020F000AC8A4FF6FF400440B0890443AC8201A88B
:10210000FFF766FC1F48874202D1DDF810A001E00E
:10211000DDF80CA0A88900F4004040B10AEBCA0029
:1021200000EB0A1031684900B0FBF1F807E00AEB58
:10213000CA0000EB0A1031688900B0FBF1F8642096
:10214000B8FBF0F004012009642101FB1089A88983
:1021500000F4004040B1322000EBC900B0FBF1F0C8
:1021600000F00700044308E0322000EB091064216E
:10217000B0FBF1F000F00F0004432C8106B0BDE885
:10218000F08700000038014001468888C0F308004D
:102190007047C1F308028280704700BFFEE700006D
:1021A00010B5044621460548FFF7F3FF00BF802124
:1021B0000248FFF721FF0028F9D010BD0048004079
:1021C0000FB470B500240FAD9DF81000FFF7E8FFC5
:1021D0009DF81100FFF7E4FF9DF81200FFF7E0FF04
:1021E0009DF81300FFF7DCFF9DF81400FFF7D8FF00
:1021F0009DF81500FFF7D4FF00BF04E0285DFFF74E
:10220000CFFF601CC4B29DF81400801FA042F5DC13
:102210009DF86800FFF7C4FF9DF86900FFF7C0FF55
:1022200070BC5DF814FB00002DE9F04105462C461A
:102230004FF400511248FEF7BBFF00261CE0274672
:1022400007F08007802F04D1F9010D48FEF7B2FF97
:1022500004E04FF480410A48FEF7AAFF6006040E2E
:102260004FF400510648FEF7A5FF4FF40051044813
:10227000FEF79EFF701CC6B2082EE0DBBDE8F081C1
:10228000000C014010B50446FFF76EF87820FFF708
:10229000CBFFFFF7E1F80020FFF7C6FFFFF7DCF800
:1022A0002046FFF7C1FFFFF7D7F8FFF79BF810BDF7
:1022B00010B50446FFF758F87820FFF7B5FFFFF791
:1022C000CBF84020FFF7B0FFFFF7C6F82046FFF736
:1022D000ABFFFFF7C1F8FFF785F810BD0FB4084B4F
:1022E00010B504A902AA039800F0CEF8044602A98A
:1022F000002000F060FC204610BC5DF814FB0000DC
:10230000B72B000802E008C8121F08C1002AFAD142
:1023100070477047002001E001C1121F002AFBD165
:10232000704700002DE9FF5FDDE90220010DDDF8B7
:1023300038B0024318D044F61050A1F2FF314143A7
:102340000D140F98012820D0A5EB0B00401C5FEA6C
:10235000000A4FF00004474EDFF81C91A04650469B
:1023600016D5CAF1000728E00F98012443A20128DE
:1023700008D0002100980F9BC0E90021C0E902436A
:10238000BDE8FF9F6FEA0B01F4E7CBF10000DEE749
:10239000074612E0F80707D0224633464046494632
:1023A000FEF774F8804689462246334610461946A1
:1023B000FEF76CF804460E467F10002FEAD1DDE9E7
:1023C0000201BAF1000F42464B4602DAFEF75EF810
:1023D00001E0FEF7CDF804460E460022284BFEF73A
:1023E000B7FA03D84FF0FF30014607E00022254B33
:1023F00020463146FDF7A3FFFEF792FA102409E0CC
:10240000002C0ADB0A220023FEF794F9019B3032EC
:102410001A55641E50EA0102F2D1641C019AC4F1FB
:10242000110314440F9A012A03D0012208430DD14D
:102430000AE0084304D000204FF0110B0F9080E712
:10244000A3EB0B056D1E0DE05B4504DD4FF00002B4
:1024500005F1010504E003DA4FF00002A5F10105E2
:10246000002AECD000980F99C0E90231C0E900457C
:1024700086E70000000024400000F03F300000002C
:102480000000F0430000E03F2DE9FF4F95B09B4670
:102490008946064600250FE2252877D100242746E5
:1024A000F84A0121059400E0044316F8013F203B5F
:1024B00001FA03F01042F7D130782A2811D06FF0DA
:1024C0002F033078A0F13002092A16D8059A44F07B
:1024D000020402EB820203EB42021044761C0590D8
:1024E000EFE759F8042B0592002A03DA504244F42E
:1024F0000054059044F00204761C30782E2816D142
:1025000016F8010F44F004042A280DD06FF02F02B2
:102510003078A0F13003092B09D807EB870302EBD1
:102520004303C718761CF3E759F8047B761C307810
:102530006C280FD006DC4C2817D068280DD06A28EC
:1025400014D104E0742810D07A280FD10DE044F49F
:1025500000140AE044F4801401E044F4401472785A
:10256000824202D104F58014761C761C30786628ED
:102570000BD013DC582877D009DC002875D045280B
:10258000F6D04628F4D047281AD19DE118E06328F8
:1025900035D0642879D0652812D195E1702873D0A0
:1025A00008DC6728F1D069286FD06E280DD06F281D
:1025B00006D1B5E073282CD0752875D0782874D052
:1025C0005A46179990476D1C75E1C4F302500228D2
:1025D00009D003280DD0D9F8001004280DD00D60C3
:1025E00009F1040967E1D9F80010EA17C1E90052BE
:1025F000F6E7D9F800100D80F2E70D70F0E719F852
:10260000041B8DF8001000208DF80100EA4601201F
:1026100003E059F804AB4FF0FF3061074FF00001C1
:1026200002D40DE008F101018846B9420FDA804575
:10263000F8DB1AF808100029F4D108E008F10101CC
:1026400088468142FADB1AF808100029F6D105986D
:102650005B46A0EB080721463846179A00F094FA2B
:10266000284400EB080507E04DE029E10DE01AF8E9
:10267000010B5A4617999047B8F10108F7D25B460B
:1026800021463846179A13E142E00A220092C4F329
:1026900002524FF0000A022A08D059F804CB032A4C
:1026A0004FEAEC710AD00DE029E02AE009F10701B8
:1026B00021F00702F2E802C1914609E00FFA8CFC12
:1026C0004FEAEC71042A03D14FFA8CFC4FEAEC710B
:1026D000002907DA0A460021DCF1000C61EB020157
:1026E0002D2202E0220504D52B228DF804200122A0
:1026F00003E0E20701D02022F7E7904659E00A21E3
:1027000002E010220DE010214FF0000A00910BE0D2
:1027100010224FF0000A44F004040827009203E05E
:1027200008224FF0000A0092C4F30252022A05D098
:1027300059F804CB0021032A08D009E009F1070168
:1027400021F00702F2E802C1914605E01FFA8CFC75
:10275000042A01D10CF0FF0C4FF00008220728D505
:10276000702806D0009B83F0100353EA0A0305D0BB
:102770000EE040228DF80420012208E05CEA01020C
:1027800006D030228DF804208DF8050002229046F4
:10279000009B83F0080353EA0A030AD15CEA0102B2
:1027A00001D1620705D530228DF804204FF00108D1
:1027B0007F1E582804D034A003900EA802900DE08C
:1027C00036A0F9E753466046009AFDF7B3FF84460A
:1027D0000398825C0298401E029002705CEA01003D
:1027E000F0D1029806A9081A00F1200A600702D564
:1027F00024F4803400E00127574502DDA7EB0A00EE
:1028000000E0002000EB0A01009005984144401AC6
:102810000590E00306D45B462146179A059800F020
:10282000B3F90544002706E001A85A46C05D179990
:1028300090476D1C7F1C4745F6DBE0030CD55B46DB
:102840002146179A059800F09FF9054404E03020CE
:102850005A46179990476D1C0099481E0090002910
:10286000F5DC08E0029802995A460078491C02916A
:10287000179990476D1CBAF10001AAF1010AF1DC29
:1028800065E1000009280100303132333435363734
:1028900038396162636465660000000030313233AC
:1028A000343536373839414243444546000000004C
:1028B00000F058F90544761C307800287FF4ECAD20
:1028C00019B02846BDE8F08F620700D4062709F149
:1028D000070222F0070CFCE80223E14603F000485F
:1028E0005FEA080C02D00FF2702C0DE05FEA045C86
:1028F00002D50FF2682C07E05FEAC47C02D00FF229
:10290000602C01E0AFF2700C4FF0FF3823F0004371
:10291000CDF850C065280CD006DC452809D04628E3
:102920001DD047283DD13DE0662818D067287ED1CC
:1029300038E00021112F01DB112000E0781CCDE9E7
:10294000000106A90EA8FFF7EDFCDDE90F010E9AC4
:1029500003910021009207F1010A04914DE04FF02C
:1029600000400097CDE9011006A90EA8FFF7DAFC98
:10297000DDE90F0203920E9B11990022DDF80CA0F5
:102980000093049211B9791C00EB010AB7EB0A001D
:1029900004D4C0F1FF3007F1010A0490AAEB07004C
:1029A000019044E0012F00DA01270021112F01DD01
:1029B000112000E03846CDE9000106A90EA8FFF776
:1029C000B1FCDDE90F010E9A039100210491009200
:1029D000BA4621070CD40399514500DA8A46BAF168
:1029E000010F05DD009AAAF10101515C302908D0E0
:1029F000B84202DA10F1040F06DA0121CDE9011024
:102A000015E0AAF10101E9E7002805DC0499014479
:102A10000491AAEB000102E0411C514500DD8A4609
:102A20000499401A401C01904FF00040029020078A
:102A300004D40198504501DBCDF8048000208DF8C6
:102A40004F0002980DF14F07B0F1004F25D02B2019
:102A50000E9002984FF0020800280CDA40420290D3
:102A60002D200E9007E00A210298FDF74DFE30312F
:102A7000029007F8011DB8F10001A8F10108F2DC8D
:102A800002980028EFD1791E0E980870307800F077
:102A9000200040F0450007F8020D12A8C01B00F10D
:102AA00007081498007800B1012000EB0A01019892
:102AB00001EBE07105984144401A401E0590E00387
:102AC00006D45B462146179A059800F05DF8054448
:102AD0001498007818B15A46179990476D1CE00376
:102AE00024D55B462146179A059800F04DF8054419
:102AF0001CE00498002807DBDDE90301884203DDC0
:102B00000098405C179901E0179930205A46904789
:102B1000049805F10105401C04900198401E0190A5
:102B200004D12E205A46179990476D1CBAF1000126
:102B3000AAF1010ADDDC05E017F8010B5A461799E6
:102B400090476D1CB8F10001A8F10108F4DC5B4668
:102B50002146179A0598ABE62D0000002B000000D7
:102B6000200000002DE9F041044600251E461746CE
:102B7000880404D405E039462020B0476D1C641E4B
:102B8000F9D52846BDE8F0812DE9F041044600253D
:102B90001E469046C80301D5302700E02027880450
:102BA00004D505E041463846B0476D1C641EF9D592
:102BB0002846BDE8F0810A68531C0B60107070470E
:102BC00010B50420FFF762F80E4800680E49B0FB0C
:102BD000F1F00E4908700B4800680B49B0FBF1F4A6
:102BE0004FF47A7044434FF0E020006940F0020057
:102BF0004FF0E021086108464461006940F001009F
:102C0000086110BD0000002040420F00E6000020D7
:102C100010B504464FF47A7104FB01F000F002F89D
:102C200010BD000070B5034600224FF0E026756924
:102C30000D4E367803FB06F44FF0E026B16910E044
:102C40004FF0E026B06988420BD0884202D20E1ABB
:102C5000324402E02E1A0E4432440146A24200D30E
:102C600000E0EDE700BF70BDE6000020002106E0B7
:102C70000A2100BF0A00A1F1010399B2FAD10200B2
:102C8000A0F1010398B2F3D1704770B50646002455
:102C900018E004F1B0000021FEF751FE00210846C3
:102CA000FEF74DFE00211020FEF749FE002505E04D
:102CB00001213046FEF743FE681CC5B2802DF7DBCC
:102CC000601CC4B2082CE4DB70BD00004FF4E0606F
:102CD000FEF7ACFCFFF774FF4FF4E13000F020F892
:102CE000FEF794FAFEF744FCFDF774FE41F61F412F
:102CF00040F2CF70FFF710F8FEF7EEFBFEF714FD81
:102D00000BE00648006840B1FDF79EFFFEF798FC17
:102D1000FEF706FF002001490860F2E728000020C6
:102D200010B586B0044601210820FEF741FE0121BE
:102D30008804FEF72DFE4FF48060ADF814000320E8
:102D40008DF8160018208DF8170005A91C48FEF70D
:102D5000A4F94FF40060ADF8140004208DF81700BA
:102D600005A91748FEF799F927208DF800000020E3
:102D70008DF8010002208DF8020001208DF803007B
:102D80006846FEF71BFC01940020ADF80800ADF882
:102D90000A00ADF80C00ADF810000C20ADF80E00E4
:102DA00001A90848FFF784F9012240F2255105489E
:102DB000FFF759F901210348FFF712F906B010BDDA
:102DC000000C01400048004000000000000000002E
:102DD000002F000000000700070000147F147F147C
:102DE00000242A7F2A120062640813230036495502
:102DF000225000000503000000001C2241000000DA
:102E000041221C000014083E08140008083E08086F
:102E1000000000A0600000080808080800006060CA
:102E20000000002010080402003E5149453E000009
:102E3000427F4000004261514946002141454B31EB
:102E4000001814127F10002745454539003C4A49B7
:102E50004930000171090503003649494936000629
:102E60004949291E00003636000000005636000091
:102E7000000814224100001414141414000041220C
:102E8000140800020151090600324959513E007CE4
:102E90001211127C007F49494936003E41414122CE
:102EA000007F4141221C007F49494941007F0909B7
:102EB0000901003E4149497A007F0808087F000067
:102EC000417F4100002040413F01007F0814224122
:102ED000007F40404040007F020C027F007F0408DA
:102EE000107F003E4141413E007F09090906003E36
:102EF0004151215E007F091929460046494949315F
:102F00000001017F0101003F4040403F001F204081
:102F1000201F003F4038403F00631408146300073F
:102F20000870080700615149454300007F41410096
:102F300000552A552A55000041417F000004020136
:102F40000204004040404040000001020400002014
:102F500054545478007F4844443800384444442052
:102F600000384444487F00385454541800087E09FF
:102F700001020018A4A4A47C007F080404780000C7
:102F8000447D4000004080847D00007F1028440084
:102F90000000417F4000007C04180478007C080495
:102FA000047800384444443800FC242424180018D1
:102FB000242418FC007C08040408004854545420BD
:102FC00000043F444020003C4040207C001C204046
:102FD000201C003C4030403C004428102844001C89
:102FE000A0A0A07C004464544C4414141414141481
:102FF00000000000000000000000000000000000D1
:10300000000000F800000000000000333000000065
:1030100000100C06100C060000000000000000006C
:1030200040C07840C0784000043F04043F040400DE
:10303000007088FC08300000001820FF211E0000EE
:10304000F008F000E018000000211C031E211E0003
:1030500000F00888700000001E2123241927211089
:1030600010160E000000000000000000000000002C
:10307000000000E0180402000000000718204000D3
:1030800000020418E00000000040201807000000C3
:10309000404080F0804040000202010F0102020027
:1030A000000000F0000000000101011F010101000B
:1030B000000000000000000080B070000000000070
:1030C00000000000000000000001010101010101F9
:1030D0000000000000000000003030000000000090
:1030E0000000000080601804006018060100000065
:1030F00000E010080810E000000F102020100F0062
:10310000001010F8000000000020203F20200000E8
:103110000070080808887000003028242221300040
:1031200000300888884830000018202020110E0048
:103130000000C02010F8000000070424243F2400F1
:1031400000F80888880808000019212020110E00C6
:1031500000E0108888180000000F112020110E00D8
:1031600000380808C83808000000003F00000000D0
:103170000070880808887000001C222121221C0091
:1031800000E010080810E0000000312222110F00BA
:10319000000000C0C000000000000030300000004F
:1031A00000000080000000000000806000000000BF
:1031B00000008040201008000001020408102000D8
:1031C0004040404040404000040404040404040023
:1031D00000081020408000000020100804020100B8
:1031E000007048080808F0000000003036010000B8
:1031F000C030C828E810E0000718272423140B006B
:103200000000C038E0000000203C230202273820E4
:1032100008F8888888700000203F202020110E00C8
:10322000C0300808080838000718202020100800BF
:1032300008F808080810E000203F202020100F00A8
:1032400008F88888E8081000203F20202320180074
:1032500008F88888E8081000203F200003000000DC
:10326000C03008080838000007182020221E02007D
:1032700008F808000008F808203F210101213F203C
:10328000000808F8080800000020203F2020000067
:1032900000000808F8080800C08080807F00000057
:1032A00008F888C028180800203F20012638200090
:1032B00008F8080000000000203F202020203000F7
:1032C00008F8F800F8F80800203F003F003F200011
:1032D00008F830C00008F808203F200007183F0019
:1032E000E01008080810E0000F10202020100F0048
:1032F00008F808080808F000203F2101010100003B
:10330000E01008080810E0000F18242438504F007F
:1033100008F8888888887000203F2000030C30203F
:1033200000708808080838000038202121221C007D
:10333000180808F8080818000000203F20000000C6
:1033400008F808000008F808001F202020201F00AF
:103350000878880000C83808000007380E0100000F
:10336000F80800F80008F800033C0700073C0300D9
:10337000081868808068180820302C03032C30203F
:103380000838C800C83808000000203F20000000AE
:1033900010080808C8380800203826212020180006
:1033A000000000FE020202000000007F40404000DA
:1033B000000C30C000000000000000010638C00012
:1033C00000020202FE000000004040407F000000BA
:1033D00000000402020204000000000000000000DF
:1033E00000000000000000008080808080808080DD
:1033F00000020204000000000000000000000000C5
:1034000000008080808000000019242222223F20BA
:1034100008F8008080000000003F112020110E00FD
:103420000000008080800000000E1120202011008C
:10343000000000808088F800000E112020103F203E
:103440000000808080800000001F222222221300C2
:10345000008080F0888888180020203F202000000D
:103460000000808080808000006B949494936000C2
:1034700008F8008080800000203F210000203F20CD
:1034800000809898000000000020203F20200000CD
:10349000000000809898000000C08080807F0000BD
:1034A00008F8000080808000203F24022D3020009A
:1034B000000808F8000000000020203F2020000045
:1034C0008080808080808000203F20003F20003F5F
:1034D0008080008080800000203F210000203F206D
:1034E0000000808080800000001F202020201F001E
:1034F000808000808000000080FFA12020110E004D
:103500000000008080808000000E112020A0FF803D
:10351000808080008080800020203F2120000100EA
:10352000000080808080800000332424242419003F
:10353000008080E0808000000000001F202000004C
:103540008080000000808000001F202020103F208D
:10355000808080000080808000010E30080601001D
:1035600080800080008080800F300C030C300F00C2
:1035700000808000808080000020312E0E312000ED
:10358000808080000080808080818E70180601001D
:1035900000808080808080000021302C222130003B
:1035A00000000000807C020200000000003F40405C
:1035B00000000000FF00000000000000FF0000000D
:1035C0000002027C800000000040403F000000003C
:1035D00000060101020204040000000000000000D7
:1035E0000036000800000020EC0000000423000862
:1035F000EC360008EC0000208C05000014230008C5
:1036000000A24A04000000000000000001020304C0
:103610000607080900000000010203040102030478
:103620000607080902040608000000000000803FA9
:103630000000004000004040000080400000A0402A
:103640000000C0400000E0400000004100001041C8
:1036500000002041000030410000FA430000FA431E
:103660000000FA4300009041000098410000A04192
:103670000000A8410000B0410000B841CAAC0330CE
:103680005A0200000000803F00000040000040405F
:10369000000080400000A0400000C0400000E0406A
:1036A00000000041000010410000204100003041B6
:1036B00000004041000050410000604100007041A6
:1036C00000008041000088410000904100009841C6
:1036D0000000A0410000A84116CC0000000000003E
:0C36E000000000000000000100000000DD
:0400000508000131BD
:00000001FF
